{
  "_format": "hh-sol-artifact-1",
  "contractName": "TokenSale",
  "sourceName": "contracts/TokenSale.sol",
  "abi": [
    {
      "inputs": [],
      "stateMutability": "nonpayable",
      "type": "constructor"
    },
    {
      "anonymous": false,
      "inputs": [
        {
          "indexed": false,
          "internalType": "bytes32",
          "name": "newRoot",
          "type": "bytes32"
        }
      ],
      "name": "MerkleRootUpdated",
      "type": "event"
    },
    {
      "anonymous": false,
      "inputs": [
        {
          "indexed": true,
          "internalType": "address",
          "name": "previousOwner",
          "type": "address"
        },
        {
          "indexed": true,
          "internalType": "address",
          "name": "newOwner",
          "type": "address"
        }
      ],
      "name": "OwnershipTransferred",
      "type": "event"
    },
    {
      "anonymous": false,
      "inputs": [
        {
          "indexed": false,
          "internalType": "uint256",
          "name": "newPrice",
          "type": "uint256"
        }
      ],
      "name": "PriceUpdated",
      "type": "event"
    },
    {
      "anonymous": false,
      "inputs": [
        {
          "indexed": false,
          "internalType": "uint256",
          "name": "startTime",
          "type": "uint256"
        },
        {
          "indexed": false,
          "internalType": "uint256",
          "name": "endTime",
          "type": "uint256"
        }
      ],
      "name": "SaleTimingUpdated",
      "type": "event"
    },
    {
      "anonymous": false,
      "inputs": [
        {
          "indexed": true,
          "internalType": "address",
          "name": "claimer",
          "type": "address"
        },
        {
          "indexed": false,
          "internalType": "uint256",
          "name": "amount",
          "type": "uint256"
        }
      ],
      "name": "TokensClaimed",
      "type": "event"
    },
    {
      "anonymous": false,
      "inputs": [
        {
          "indexed": true,
          "internalType": "address",
          "name": "buyer",
          "type": "address"
        },
        {
          "indexed": false,
          "internalType": "uint256",
          "name": "usdtAmount",
          "type": "uint256"
        },
        {
          "indexed": false,
          "internalType": "uint256",
          "name": "tokenAmount",
          "type": "uint256"
        }
      ],
      "name": "TokensPurchased",
      "type": "event"
    },
    {
      "inputs": [
        {
          "internalType": "uint256",
          "name": "usdtAmount",
          "type": "uint256"
        }
      ],
      "name": "buy",
      "outputs": [],
      "stateMutability": "nonpayable",
      "type": "function"
    },
    {
      "inputs": [
        {
          "internalType": "bytes32[]",
          "name": "proof",
          "type": "bytes32[]"
        },
        {
          "internalType": "uint256",
          "name": "amount",
          "type": "uint256"
        }
      ],
      "name": "claim",
      "outputs": [],
      "stateMutability": "nonpayable",
      "type": "function"
    },
    {
      "inputs": [],
      "name": "hardCap",
      "outputs": [
        {
          "internalType": "uint256",
          "name": "",
          "type": "uint256"
        }
      ],
      "stateMutability": "view",
      "type": "function"
    },
    {
      "inputs": [
        {
          "internalType": "address",
          "name": "",
          "type": "address"
        }
      ],
      "name": "hasClaimed",
      "outputs": [
        {
          "internalType": "bool",
          "name": "",
          "type": "bool"
        }
      ],
      "stateMutability": "view",
      "type": "function"
    },
    {
      "inputs": [],
      "name": "merkleRoot",
      "outputs": [
        {
          "internalType": "bytes32",
          "name": "",
          "type": "bytes32"
        }
      ],
      "stateMutability": "view",
      "type": "function"
    },
    {
      "inputs": [],
      "name": "owner",
      "outputs": [
        {
          "internalType": "address",
          "name": "",
          "type": "address"
        }
      ],
      "stateMutability": "view",
      "type": "function"
    },
    {
      "inputs": [],
      "name": "perWalletLimit",
      "outputs": [
        {
          "internalType": "uint256",
          "name": "",
          "type": "uint256"
        }
      ],
      "stateMutability": "view",
      "type": "function"
    },
    {
      "inputs": [
        {
          "internalType": "address",
          "name": "",
          "type": "address"
        }
      ],
      "name": "purchasedAmounts",
      "outputs": [
        {
          "internalType": "uint256",
          "name": "",
          "type": "uint256"
        }
      ],
      "stateMutability": "view",
      "type": "function"
    },
    {
      "inputs": [],
      "name": "renounceOwnership",
      "outputs": [],
      "stateMutability": "nonpayable",
      "type": "function"
    },
    {
      "inputs": [],
      "name": "saleEndTime",
      "outputs": [
        {
          "internalType": "uint256",
          "name": "",
          "type": "uint256"
        }
      ],
      "stateMutability": "view",
      "type": "function"
    },
    {
      "inputs": [],
      "name": "saleStartTime",
      "outputs": [
        {
          "internalType": "uint256",
          "name": "",
          "type": "uint256"
        }
      ],
      "stateMutability": "view",
      "type": "function"
    },
    {
      "inputs": [],
      "name": "saleToken",
      "outputs": [
        {
          "internalType": "contract IERC20",
          "name": "",
          "type": "address"
        }
      ],
      "stateMutability": "view",
      "type": "function"
    },
    {
      "inputs": [
        {
          "internalType": "uint256",
          "name": "newPrice",
          "type": "uint256"
        }
      ],
      "name": "setPrice",
      "outputs": [],
      "stateMutability": "nonpayable",
      "type": "function"
    },
    {
      "inputs": [],
      "name": "tokenPrice",
      "outputs": [
        {
          "internalType": "uint256",
          "name": "",
          "type": "uint256"
        }
      ],
      "stateMutability": "view",
      "type": "function"
    },
    {
      "inputs": [],
      "name": "totalTokensSold",
      "outputs": [
        {
          "internalType": "uint256",
          "name": "",
          "type": "uint256"
        }
      ],
      "stateMutability": "view",
      "type": "function"
    },
    {
      "inputs": [
        {
          "internalType": "address",
          "name": "newOwner",
          "type": "address"
        }
      ],
      "name": "transferOwnership",
      "outputs": [],
      "stateMutability": "nonpayable",
      "type": "function"
    },
    {
      "inputs": [
        {
          "internalType": "bytes32",
          "name": "newRoot",
          "type": "bytes32"
        }
      ],
      "name": "updateMerkleRoot",
      "outputs": [],
      "stateMutability": "nonpayable",
      "type": "function"
    },
    {
      "inputs": [
        {
          "internalType": "uint256",
          "name": "newStartTime",
          "type": "uint256"
        },
        {
          "internalType": "uint256",
          "name": "newEndTime",
          "type": "uint256"
        }
      ],
      "name": "updateSaleTiming",
      "outputs": [],
      "stateMutability": "nonpayable",
      "type": "function"
    },
    {
      "inputs": [],
      "name": "usdt",
      "outputs": [
        {
          "internalType": "contract IERC20",
          "name": "",
          "type": "address"
        }
      ],
      "stateMutability": "view",
      "type": "function"
    },
    {
      "inputs": [],
      "name": "withdrawUSDT",
      "outputs": [],
      "stateMutability": "nonpayable",
      "type": "function"
    },
    {
      "inputs": [],
      "name": "withdrawUnsoldTokens",
      "outputs": [],
      "stateMutability": "nonpayable",
      "type": "function"
    }
  ],
  "bytecode": "0x60c060405234801561001057600080fd5b5061001a33610096565b6001805573973104faa7f2b11787557e85953eca6b4e2623286080527328e24ad822d811cb2af812f23da2e92dbf8bc29060a052614e2060025569d3c21bcecceda100000060035569021e19e0c9bab240000060045561007c42610e106100e6565b600581905561008e9062093a806100e6565b60065561010d565b600080546001600160a01b038381166001600160a01b0319831681178455604051919092169283917f8be0079c531659141344cd1fd0a4f28419497f9722a3daafe3b4186f6b6457e09190a35050565b8082018082111561010757634e487b7160e01b600052601160045260246000fd5b92915050565b60805160a0516113326101636000396000818161027d0152818161057701528181610832015281816108fc0152610b3301526000818161016601528181610304015281816103d10152610afe01526113326000f3fe608060405234801561001057600080fd5b50600436106101375760003560e01c80638da5cb5b116100b8578063de42c69e1161007c578063de42c69e1461026f578063e985e36714610278578063ed338ff11461029f578063f2fde38b146102a8578063fb86a404146102bb578063fe07d1d5146102c457600080fd5b80638da5cb5b1461021d57806391b7f5ed1461022e578063bceb432014610241578063c8bdbfb614610254578063d96a094a1461025c57600080fd5b80634783f0ef116100ff5780634783f0ef146101bd57806363b20117146101d0578063715018a6146101d957806373b2e80e146101e15780637ff9b5961461021457600080fd5b80631cbaee2d1461013c5780632eb4a7ab146101585780632f48ab7d14610161578063362e496b146101a05780633b439351146101aa575b600080fd5b61014560055481565b6040519081526020015b60405180910390f35b610145600a5481565b6101887f000000000000000000000000000000000000000000000000000000000000000081565b6040516001600160a01b03909116815260200161014f565b6101a86102e4565b005b6101a86101b83660046110de565b6103fb565b6101a86101cb366004611159565b6105ea565b61014560075481565b6101a861066a565b6102046101ef366004611172565b60096020526000908152604090205460ff1681565b604051901515815260200161014f565b61014560025481565b6000546001600160a01b0316610188565b6101a861023c366004611159565b61067e565b6101a861024f36600461119b565b6106fb565b6101a86107d0565b6101a861026a366004611159565b610923565b61014560045481565b6101887f000000000000000000000000000000000000000000000000000000000000000081565b61014560065481565b6101a86102b6366004611172565b610bc8565b61014560035481565b6101456102d2366004611172565b60086020526000908152604090205481565b6102ec610c3e565b6040516370a0823160e01b81523060048201526000907f00000000000000000000000000000000000000000000000000000000000000006001600160a01b0316906370a0823190602401602060405180830381865afa158015610353573d6000803e3d6000fd5b505050506040513d601f19601f8201168201806040525081019061037791906111bd565b9050600081116103c45760405162461bcd60e51b81526020600482015260136024820152724e6f205553445420746f20776974686472617760681b60448201526064015b60405180910390fd5b6103f86001600160a01b037f0000000000000000000000000000000000000000000000000000000000000000163383610c98565b50565b610403610cfb565b3360009081526009602052604090205460ff16156104555760405162461bcd60e51b815260206004820152600f60248201526e105b1c9958591e4818db185a5b5959608a1b60448201526064016103bb565b600a5461049a5760405162461bcd60e51b815260206004820152601360248201527213595c9adb19481c9bdbdd081b9bdd081cd95d606a1b60448201526064016103bb565b6040516bffffffffffffffffffffffff193360601b1660208201526034810182905260009060540160405160208183030381529060405280519060200120905061051b84848080602002602001604051908101604052809392919081815260200183836020028082843760009201919091525050600a549150849050610d54565b6105575760405162461bcd60e51b815260206004820152600d60248201526c24b73b30b634b210383937b7b360991b60448201526064016103bb565b336000818152600960205260409020805460ff191660011790556105a6907f00000000000000000000000000000000000000000000000000000000000000006001600160a01b03169084610c98565b60405182815233907f896e034966eaaf1adc54acc0f257056febbd300c9e47182cf761982cf1f5e4309060200160405180910390a2506105e560018055565b505050565b6105f2610c3e565b8061062e5760405162461bcd60e51b815260206004820152600c60248201526b125b9d985b1a59081c9bdbdd60a21b60448201526064016103bb565b600a8190556040518181527f90004c04698bc3322499a575ed3752dd4abf33e0a7294c06a787a0fe01bea941906020015b60405180910390a150565b610672610c3e565b61067c6000610d6a565b565b610686610c3e565b600081116106c65760405162461bcd60e51b815260206004820152600d60248201526c496e76616c696420707269636560981b60448201526064016103bb565b60028190556040518181527f66cbca4f3c64fecf1dcb9ce094abcf7f68c3450a1d4e3a8e917dd621edb4ebe09060200161065f565b610703610c3e565b4282116107475760405162461bcd60e51b8152602060048201526012602482015271496e76616c69642073746172742074696d6560701b60448201526064016103bb565b8181116107895760405162461bcd60e51b815260206004820152601060248201526f496e76616c696420656e642074696d6560801b60448201526064016103bb565b6005829055600681905560408051838152602081018390527fc5d97c499c70e48e94150adef780ff7a9e36b6e8f298d956341a8a98f17d15b5910160405180910390a15050565b6107d8610c3e565b600654421161081a5760405162461bcd60e51b815260206004820152600e60248201526d14d85b19481b9bdd08195b99195960921b60448201526064016103bb565b6040516370a0823160e01b81523060048201526000907f00000000000000000000000000000000000000000000000000000000000000006001600160a01b0316906370a0823190602401602060405180830381865afa158015610881573d6000803e3d6000fd5b505050506040513d601f19601f820116820180604052508101906108a591906111bd565b9050600081116108ef5760405162461bcd60e51b81526020600482015260156024820152744e6f20746f6b656e7320746f20776974686472617760581b60448201526064016103bb565b6103f86001600160a01b037f0000000000000000000000000000000000000000000000000000000000000000163383610c98565b61092b610cfb565b6005544210156109745760405162461bcd60e51b815260206004820152601460248201527314d85b19481a185cc81b9bdd081cdd185c9d195960621b60448201526064016103bb565b6006544211156109b75760405162461bcd60e51b815260206004820152600e60248201526d14d85b19481a185cc8195b99195960921b60448201526064016103bb565b60008111610a075760405162461bcd60e51b815260206004820152601d60248201527f416d6f756e74206d7573742062652067726561746572207468616e203000000060448201526064016103bb565b600254600090610a1f83670de0b6b3a76400006111ec565b610a299190611203565b905060035481600754610a3c9190611225565b1115610a825760405162461bcd60e51b81526020600482015260156024820152740576f756c642065786365656420686172642063617605c1b60448201526064016103bb565b33600090815260086020526040812054610a9d908390611225565b9050600454811115610af15760405162461bcd60e51b815260206004820152601960248201527f576f756c64206578636565642077616c6c6574206c696d69740000000000000060448201526064016103bb565b610b266001600160a01b037f000000000000000000000000000000000000000000000000000000000000000016333086610dba565b610b5a6001600160a01b037f0000000000000000000000000000000000000000000000000000000000000000163384610c98565b8160076000828254610b6c9190611225565b90915550503360008181526008602090815260409182902084905581518681529081018590527f8fafebcaf9d154343dad25669bfa277f4fbacd7ac6b0c4fed522580e040a0f33910160405180910390a250506103f860018055565b610bd0610c3e565b6001600160a01b038116610c355760405162461bcd60e51b815260206004820152602660248201527f4f776e61626c653a206e6577206f776e657220697320746865207a65726f206160448201526564647265737360d01b60648201526084016103bb565b6103f881610d6a565b6000546001600160a01b0316331461067c5760405162461bcd60e51b815260206004820181905260248201527f4f776e61626c653a2063616c6c6572206973206e6f7420746865206f776e657260448201526064016103bb565b6040516001600160a01b0383166024820152604481018290526105e590849063a9059cbb60e01b906064015b60408051601f198184030181529190526020810180516001600160e01b03166001600160e01b031990931692909217909152610df8565b600260015403610d4d5760405162461bcd60e51b815260206004820152601f60248201527f5265656e7472616e637947756172643a207265656e7472616e742063616c6c0060448201526064016103bb565b6002600155565b600082610d618584610ecd565b14949350505050565b600080546001600160a01b038381166001600160a01b0319831681178455604051919092169283917f8be0079c531659141344cd1fd0a4f28419497f9722a3daafe3b4186f6b6457e09190a35050565b6040516001600160a01b0380851660248301528316604482015260648101829052610df29085906323b872dd60e01b90608401610cc4565b50505050565b6000610e4d826040518060400160405280602081526020017f5361666545524332303a206c6f772d6c6576656c2063616c6c206661696c6564815250856001600160a01b0316610f1c9092919063ffffffff16565b9050805160001480610e6e575080806020019051810190610e6e9190611238565b6105e55760405162461bcd60e51b815260206004820152602a60248201527f5361666545524332303a204552433230206f7065726174696f6e20646964206e6044820152691bdd081cdd58d8d9595960b21b60648201526084016103bb565b600081815b8451811015610f1257610efe82868381518110610ef157610ef161125a565b6020026020010151610f33565b915080610f0a81611270565b915050610ed2565b5090505b92915050565b6060610f2b8484600085610f65565b949350505050565b6000818310610f4f576000828152602084905260409020610f5e565b60008381526020839052604090205b9392505050565b606082471015610fc65760405162461bcd60e51b815260206004820152602660248201527f416464726573733a20696e73756666696369656e742062616c616e636520666f6044820152651c8818d85b1b60d21b60648201526084016103bb565b600080866001600160a01b03168587604051610fe291906112ad565b60006040518083038185875af1925050503d806000811461101f576040519150601f19603f3d011682016040523d82523d6000602084013e611024565b606091505b509150915061103587838387611040565b979650505050505050565b606083156110af5782516000036110a8576001600160a01b0385163b6110a85760405162461bcd60e51b815260206004820152601d60248201527f416464726573733a2063616c6c20746f206e6f6e2d636f6e747261637400000060448201526064016103bb565b5081610f2b565b610f2b83838151156110c45781518083602001fd5b8060405162461bcd60e51b81526004016103bb91906112c9565b6000806000604084860312156110f357600080fd5b833567ffffffffffffffff8082111561110b57600080fd5b818601915086601f83011261111f57600080fd5b81358181111561112e57600080fd5b8760208260051b850101111561114357600080fd5b6020928301989097509590910135949350505050565b60006020828403121561116b57600080fd5b5035919050565b60006020828403121561118457600080fd5b81356001600160a01b0381168114610f5e57600080fd5b600080604083850312156111ae57600080fd5b50508035926020909101359150565b6000602082840312156111cf57600080fd5b5051919050565b634e487b7160e01b600052601160045260246000fd5b8082028115828204841417610f1657610f166111d6565b60008261122057634e487b7160e01b600052601260045260246000fd5b500490565b80820180821115610f1657610f166111d6565b60006020828403121561124a57600080fd5b81518015158114610f5e57600080fd5b634e487b7160e01b600052603260045260246000fd5b600060018201611282576112826111d6565b5060010190565b60005b838110156112a457818101518382015260200161128c565b50506000910152565b600082516112bf818460208701611289565b9190910192915050565b60208152600082518060208401526112e8816040850160208701611289565b601f01601f1916919091016040019291505056fea2646970667358221220f7882fd29d37bc2bcb47b12bc5170139afa5566e84f93cfcb8d86f676a0fe6ce64736f6c63430008130033",
  "linkReferences": {},
  "deployedLinkReferences": {}
}