{
  "_format": "hh-sol-artifact-1",
  "contractName": "TokenSaleLocked",
  "sourceName": "contracts/TokenSaleLocked.sol",
  "abi": [
    {
      "inputs": [],
      "stateMutability": "nonpayable",
      "type": "constructor"
    },
    {
      "anonymous": false,
      "inputs": [
        {
          "indexed": true,
          "internalType": "address",
          "name": "previousOwner",
          "type": "address"
        },
        {
          "indexed": true,
          "internalType": "address",
          "name": "newOwner",
          "type": "address"
        }
      ],
      "name": "OwnershipTransferred",
      "type": "event"
    },
    {
      "anonymous": false,
      "inputs": [
        {
          "indexed": false,
          "internalType": "uint256",
          "name": "newPrice",
          "type": "uint256"
        }
      ],
      "name": "PriceUpdated",
      "type": "event"
    },
    {
      "anonymous": false,
      "inputs": [
        {
          "indexed": false,
          "internalType": "uint256",
          "name": "startTime",
          "type": "uint256"
        },
        {
          "indexed": false,
          "internalType": "uint256",
          "name": "endTime",
          "type": "uint256"
        }
      ],
      "name": "SaleTimingUpdated",
      "type": "event"
    },
    {
      "anonymous": false,
      "inputs": [
        {
          "indexed": true,
          "internalType": "address",
          "name": "claimer",
          "type": "address"
        },
        {
          "indexed": false,
          "internalType": "uint256",
          "name": "amount",
          "type": "uint256"
        }
      ],
      "name": "TokensClaimed",
      "type": "event"
    },
    {
      "anonymous": false,
      "inputs": [
        {
          "indexed": true,
          "internalType": "address",
          "name": "buyer",
          "type": "address"
        },
        {
          "indexed": false,
          "internalType": "uint256",
          "name": "usdtAmount",
          "type": "uint256"
        },
        {
          "indexed": false,
          "internalType": "uint256",
          "name": "tokenAmount",
          "type": "uint256"
        }
      ],
      "name": "TokensPurchased",
      "type": "event"
    },
    {
      "inputs": [],
      "name": "LOCK_PERIOD",
      "outputs": [
        {
          "internalType": "uint256",
          "name": "",
          "type": "uint256"
        }
      ],
      "stateMutability": "view",
      "type": "function"
    },
    {
      "inputs": [
        {
          "internalType": "uint256",
          "name": "usdtAmount",
          "type": "uint256"
        }
      ],
      "name": "buy",
      "outputs": [],
      "stateMutability": "nonpayable",
      "type": "function"
    },
    {
      "inputs": [],
      "name": "claim",
      "outputs": [],
      "stateMutability": "nonpayable",
      "type": "function"
    },
    {
      "inputs": [
        {
          "internalType": "address",
          "name": "",
          "type": "address"
        }
      ],
      "name": "claimedAmounts",
      "outputs": [
        {
          "internalType": "uint256",
          "name": "",
          "type": "uint256"
        }
      ],
      "stateMutability": "view",
      "type": "function"
    },
    {
      "inputs": [
        {
          "internalType": "address",
          "name": "user",
          "type": "address"
        }
      ],
      "name": "getClaimInfo",
      "outputs": [
        {
          "internalType": "uint256",
          "name": "claimable",
          "type": "uint256"
        },
        {
          "internalType": "uint256",
          "name": "timeRemaining",
          "type": "uint256"
        }
      ],
      "stateMutability": "view",
      "type": "function"
    },
    {
      "inputs": [],
      "name": "hardCap",
      "outputs": [
        {
          "internalType": "uint256",
          "name": "",
          "type": "uint256"
        }
      ],
      "stateMutability": "view",
      "type": "function"
    },
    {
      "inputs": [],
      "name": "owner",
      "outputs": [
        {
          "internalType": "address",
          "name": "",
          "type": "address"
        }
      ],
      "stateMutability": "view",
      "type": "function"
    },
    {
      "inputs": [],
      "name": "perWalletLimit",
      "outputs": [
        {
          "internalType": "uint256",
          "name": "",
          "type": "uint256"
        }
      ],
      "stateMutability": "view",
      "type": "function"
    },
    {
      "inputs": [
        {
          "internalType": "address",
          "name": "",
          "type": "address"
        }
      ],
      "name": "purchaseTimestamps",
      "outputs": [
        {
          "internalType": "uint256",
          "name": "",
          "type": "uint256"
        }
      ],
      "stateMutability": "view",
      "type": "function"
    },
    {
      "inputs": [
        {
          "internalType": "address",
          "name": "",
          "type": "address"
        }
      ],
      "name": "purchasedAmounts",
      "outputs": [
        {
          "internalType": "uint256",
          "name": "",
          "type": "uint256"
        }
      ],
      "stateMutability": "view",
      "type": "function"
    },
    {
      "inputs": [],
      "name": "renounceOwnership",
      "outputs": [],
      "stateMutability": "nonpayable",
      "type": "function"
    },
    {
      "inputs": [],
      "name": "saleEndTime",
      "outputs": [
        {
          "internalType": "uint256",
          "name": "",
          "type": "uint256"
        }
      ],
      "stateMutability": "view",
      "type": "function"
    },
    {
      "inputs": [],
      "name": "saleStartTime",
      "outputs": [
        {
          "internalType": "uint256",
          "name": "",
          "type": "uint256"
        }
      ],
      "stateMutability": "view",
      "type": "function"
    },
    {
      "inputs": [],
      "name": "saleToken",
      "outputs": [
        {
          "internalType": "contract IERC20",
          "name": "",
          "type": "address"
        }
      ],
      "stateMutability": "view",
      "type": "function"
    },
    {
      "inputs": [
        {
          "internalType": "uint256",
          "name": "newPrice",
          "type": "uint256"
        }
      ],
      "name": "setPrice",
      "outputs": [],
      "stateMutability": "nonpayable",
      "type": "function"
    },
    {
      "inputs": [],
      "name": "tokenPrice",
      "outputs": [
        {
          "internalType": "uint256",
          "name": "",
          "type": "uint256"
        }
      ],
      "stateMutability": "view",
      "type": "function"
    },
    {
      "inputs": [],
      "name": "totalTokensSold",
      "outputs": [
        {
          "internalType": "uint256",
          "name": "",
          "type": "uint256"
        }
      ],
      "stateMutability": "view",
      "type": "function"
    },
    {
      "inputs": [
        {
          "internalType": "address",
          "name": "newOwner",
          "type": "address"
        }
      ],
      "name": "transferOwnership",
      "outputs": [],
      "stateMutability": "nonpayable",
      "type": "function"
    },
    {
      "inputs": [
        {
          "internalType": "uint256",
          "name": "newStartTime",
          "type": "uint256"
        },
        {
          "internalType": "uint256",
          "name": "newEndTime",
          "type": "uint256"
        }
      ],
      "name": "updateSaleTiming",
      "outputs": [],
      "stateMutability": "nonpayable",
      "type": "function"
    },
    {
      "inputs": [],
      "name": "usdt",
      "outputs": [
        {
          "internalType": "contract IERC20",
          "name": "",
          "type": "address"
        }
      ],
      "stateMutability": "view",
      "type": "function"
    },
    {
      "inputs": [],
      "name": "withdrawUSDT",
      "outputs": [],
      "stateMutability": "nonpayable",
      "type": "function"
    },
    {
      "inputs": [],
      "name": "withdrawUnsoldTokens",
      "outputs": [],
      "stateMutability": "nonpayable",
      "type": "function"
    }
  ],
  "bytecode": "0x60c060405234801561001057600080fd5b5061001a33610096565b6001805573973104faa7f2b11787557e85953eca6b4e2623286080527328e24ad822d811cb2af812f23da2e92dbf8bc29060a052614e2060025569d3c21bcecceda100000060035569021e19e0c9bab240000060045561007c42610e106100e6565b600581905561008e9062093a806100e6565b60065561010d565b600080546001600160a01b038381166001600160a01b0319831681178455604051919092169283917f8be0079c531659141344cd1fd0a4f28419497f9722a3daafe3b4186f6b6457e09190a35050565b8082018082111561010757634e487b7160e01b600052601160045260246000fd5b92915050565b60805160a0516111b261015c600039600081816102a1015281816105a0015281816107de01526108be01526000818161019b015281816103ad0152818161047a0152610ac401526111b26000f3fe608060405234801561001057600080fd5b50600436106101425760003560e01c806391b7f5ed116100b8578063de42c69e1161007c578063de42c69e14610293578063e985e3671461029c578063ed338ff1146102c3578063f2fde38b146102cc578063fb86a404146102df578063fe07d1d5146102e857600080fd5b806391b7f5ed146102325780639792a20514610245578063bceb432014610265578063c8bdbfb614610278578063d96a094a1461028057600080fd5b80634e71d92d1161010a5780634e71d92d146101df57806363b20117146101e757806371417b32146101f0578063715018a6146102105780637ff9b596146102185780638da5cb5b1461022157600080fd5b80630835fe47146101475780631820cabb146101745780631cbaee2d1461018d5780632f48ab7d14610196578063362e496b146101d5575b600080fd5b61015a610155366004610fe8565b610308565b604080519283526020830191909152015b60405180910390f35b61017f6301da9c0081565b60405190815260200161016b565b61017f60055481565b6101bd7f000000000000000000000000000000000000000000000000000000000000000081565b6040516001600160a01b03909116815260200161016b565b6101dd61038d565b005b6101dd6104a4565b61017f60075481565b61017f6101fe366004610fe8565b600a6020526000908152604090205481565b6101dd610612565b61017f60025481565b6000546001600160a01b03166101bd565b6101dd610240366004611018565b610624565b61017f610253366004610fe8565b60096020526000908152604090205481565b6101dd610273366004611031565b6106a7565b6101dd61077c565b6101dd61028e366004611018565b6108e9565b61017f60045481565b6101bd7f000000000000000000000000000000000000000000000000000000000000000081565b61017f60065481565b6101dd6102da366004610fe8565b610b64565b61017f60035481565b61017f6102f6366004610fe8565b60086020526000908152604090205481565b6001600160a01b038116600090815260086020908152604080832054600a9092528220548291906103398183611069565b6001600160a01b03861660009081526009602052604081205491955090610365906301da9c0090611082565b905080421015610380576103794282611069565b9350610385565b600093505b505050915091565b610395610bda565b6040516370a0823160e01b81523060048201526000907f00000000000000000000000000000000000000000000000000000000000000006001600160a01b0316906370a0823190602401602060405180830381865afa1580156103fc573d6000803e3d6000fd5b505050506040513d601f19601f820116820180604052508101906104209190611095565b90506000811161046d5760405162461bcd60e51b81526020600482015260136024820152724e6f205553445420746f20776974686472617760681b60448201526064015b60405180910390fd5b6104a16001600160a01b037f0000000000000000000000000000000000000000000000000000000000000000163383610c34565b50565b6104ac610c9c565b33600090815260086020908152604080832054600a90925282205490916104d38284611069565b90506000811161051a5760405162461bcd60e51b81526020600482015260126024820152714e6f20746f6b656e7320746f20636c61696d60701b6044820152606401610464565b33600090815260096020526040902054610539906301da9c0090611082565b4210156105885760405162461bcd60e51b815260206004820152601760248201527f546f6b656e7320617265207374696c6c206c6f636b65640000000000000000006044820152606401610464565b336000818152600a602052604090208490556105cf907f00000000000000000000000000000000000000000000000000000000000000006001600160a01b03169083610c34565b60405181815233907f896e034966eaaf1adc54acc0f257056febbd300c9e47182cf761982cf1f5e4309060200160405180910390a250505061061060018055565b565b61061a610bda565b6106106000610cf5565b61062c610bda565b6000811161066c5760405162461bcd60e51b815260206004820152600d60248201526c496e76616c696420707269636560981b6044820152606401610464565b60028190556040518181527f66cbca4f3c64fecf1dcb9ce094abcf7f68c3450a1d4e3a8e917dd621edb4ebe09060200160405180910390a150565b6106af610bda565b4282116106f35760405162461bcd60e51b8152602060048201526012602482015271496e76616c69642073746172742074696d6560701b6044820152606401610464565b8181116107355760405162461bcd60e51b815260206004820152601060248201526f496e76616c696420656e642074696d6560801b6044820152606401610464565b6005829055600681905560408051838152602081018390527fc5d97c499c70e48e94150adef780ff7a9e36b6e8f298d956341a8a98f17d15b5910160405180910390a15050565b610784610bda565b60065442116107c65760405162461bcd60e51b815260206004820152600e60248201526d14d85b19481b9bdd08195b99195960921b6044820152606401610464565b6040516370a0823160e01b81523060048201526000907f00000000000000000000000000000000000000000000000000000000000000006001600160a01b0316906370a0823190602401602060405180830381865afa15801561082d573d6000803e3d6000fd5b505050506040513d601f19601f820116820180604052508101906108519190611095565b6007549091508082116108a65760405162461bcd60e51b815260206004820152601c60248201527f4e6f2065786365737320746f6b656e7320746f207769746864726177000000006044820152606401610464565b6108e5336108b48385611069565b6001600160a01b037f0000000000000000000000000000000000000000000000000000000000000000169190610c34565b5050565b6108f1610c9c565b60055442101561093a5760405162461bcd60e51b815260206004820152601460248201527314d85b19481a185cc81b9bdd081cdd185c9d195960621b6044820152606401610464565b60065442111561097d5760405162461bcd60e51b815260206004820152600e60248201526d14d85b19481a185cc8195b99195960921b6044820152606401610464565b600081116109cd5760405162461bcd60e51b815260206004820152601d60248201527f416d6f756e74206d7573742062652067726561746572207468616e20300000006044820152606401610464565b6002546000906109e583670de0b6b3a76400006110ae565b6109ef91906110c5565b905060035481600754610a029190611082565b1115610a485760405162461bcd60e51b81526020600482015260156024820152740576f756c642065786365656420686172642063617605c1b6044820152606401610464565b33600090815260086020526040812054610a63908390611082565b9050600454811115610ab75760405162461bcd60e51b815260206004820152601960248201527f576f756c64206578636565642077616c6c6574206c696d6974000000000000006044820152606401610464565b610aec6001600160a01b037f000000000000000000000000000000000000000000000000000000000000000016333086610d45565b8160076000828254610afe9190611082565b9091555050336000818152600860209081526040808320859055600982529182902042905581518681529081018590527f8fafebcaf9d154343dad25669bfa277f4fbacd7ac6b0c4fed522580e040a0f33910160405180910390a250506104a160018055565b610b6c610bda565b6001600160a01b038116610bd15760405162461bcd60e51b815260206004820152602660248201527f4f776e61626c653a206e6577206f776e657220697320746865207a65726f206160448201526564647265737360d01b6064820152608401610464565b6104a181610cf5565b6000546001600160a01b031633146106105760405162461bcd60e51b815260206004820181905260248201527f4f776e61626c653a2063616c6c6572206973206e6f7420746865206f776e65726044820152606401610464565b6040516001600160a01b038316602482015260448101829052610c9790849063a9059cbb60e01b906064015b60408051601f198184030181529190526020810180516001600160e01b03166001600160e01b031990931692909217909152610d83565b505050565b600260015403610cee5760405162461bcd60e51b815260206004820152601f60248201527f5265656e7472616e637947756172643a207265656e7472616e742063616c6c006044820152606401610464565b6002600155565b600080546001600160a01b038381166001600160a01b0319831681178455604051919092169283917f8be0079c531659141344cd1fd0a4f28419497f9722a3daafe3b4186f6b6457e09190a35050565b6040516001600160a01b0380851660248301528316604482015260648101829052610d7d9085906323b872dd60e01b90608401610c60565b50505050565b6000610dd8826040518060400160405280602081526020017f5361666545524332303a206c6f772d6c6576656c2063616c6c206661696c6564815250856001600160a01b0316610e589092919063ffffffff16565b9050805160001480610df9575080806020019051810190610df991906110e7565b610c975760405162461bcd60e51b815260206004820152602a60248201527f5361666545524332303a204552433230206f7065726174696f6e20646964206e6044820152691bdd081cdd58d8d9595960b21b6064820152608401610464565b6060610e678484600085610e6f565b949350505050565b606082471015610ed05760405162461bcd60e51b815260206004820152602660248201527f416464726573733a20696e73756666696369656e742062616c616e636520666f6044820152651c8818d85b1b60d21b6064820152608401610464565b600080866001600160a01b03168587604051610eec919061112d565b60006040518083038185875af1925050503d8060008114610f29576040519150601f19603f3d011682016040523d82523d6000602084013e610f2e565b606091505b5091509150610f3f87838387610f4a565b979650505050505050565b60608315610fb9578251600003610fb2576001600160a01b0385163b610fb25760405162461bcd60e51b815260206004820152601d60248201527f416464726573733a2063616c6c20746f206e6f6e2d636f6e74726163740000006044820152606401610464565b5081610e67565b610e678383815115610fce5781518083602001fd5b8060405162461bcd60e51b81526004016104649190611149565b600060208284031215610ffa57600080fd5b81356001600160a01b038116811461101157600080fd5b9392505050565b60006020828403121561102a57600080fd5b5035919050565b6000806040838503121561104457600080fd5b50508035926020909101359150565b634e487b7160e01b600052601160045260246000fd5b8181038181111561107c5761107c611053565b92915050565b8082018082111561107c5761107c611053565b6000602082840312156110a757600080fd5b5051919050565b808202811582820484141761107c5761107c611053565b6000826110e257634e487b7160e01b600052601260045260246000fd5b500490565b6000602082840312156110f957600080fd5b8151801515811461101157600080fd5b60005b8381101561112457818101518382015260200161110c565b50506000910152565b6000825161113f818460208701611109565b9190910192915050565b6020815260008251806020840152611168816040850160208701611109565b601f01601f1916919091016040019291505056fea2646970667358221220834c1ec6cb0c57df1bb19453890fba9cfab053e8ca6fe3894f179601403e80b964736f6c63430008130033",
  "linkReferences": {},
  "deployedLinkReferences": {}
}